:020000040800F2
:10000000280E002099010008DF380008DD380008BC
:1000100000000000000000000000000000000000E0
:10002000000000000000000000000000E3380008AD
:100030000000000000000000E1380008E53800087A
:10004000AB010008AB010008AB010008AB010008E0
:10005000AB010008AB010008AB010008AB010008D0
:10006000AB010008AB0100080D260008AB01000839
:10007000AB010008AB01000800000000AB01000864
:1000800000000000AB0100080000000000000000BC
:10009000AB01000800000000AB010008AB01000844
:1000A000AB010008AB010008AB010008AB01000880
:1000B000AB010008AB010008AB010008AB01000870
:1000C00000F002F800F059F80CA030C808382418E5
:1000D0002D18671EA246AB4654465D46AC4201D180
:1000E00000F04BF87E460F3EB6460FCC0126334259
:1000F00000D0FB1A3343A246AB46184730480000F5
:1001000050480000103A02D378C878C1FAD8520794
:1001100001D330C830C101D504680C6070470000BD
:100120000023002400250026103A01D378C1FBD813
:10013000520700D330C100D50B60704710B5662957
:1001400002D104F051FB10BD642902D100F012F974
:1001500010BD002010BD1FB501F0BCF80400002048
:10016000002104F017FA401C60600020002104F018
:10017000FBF9E0601FBD10B510BD01F055FE114642
:10018000FFF7E9FF03F062FE02F0BAF803B4FFF7ED
:10019000F2FF03BC02F0E2F9074880470748004736
:1001A000FEE7FEE7FEE7FEE7FEE7FEE70448054957
:1001B000054A064B70470000ED380008C1000008F2
:1001C00028080020280E0020280A0020280A0020E5
:1001D000FEB5044610460D46184373D0A6468C461D
:1001E0000020A41A01469D4167D3664600270124DA
:1001F0003D46B61A9D4102D313463A462124654630
:1002000076462F04360C3E432D0CB61A9D4104D37E
:10021000150C1B042B4312041034654676462F063A
:10022000360A3E432D0AB61A9D4104D3150E1B0211
:100230002B4312020834654676462F0736093E43A3
:100240002D09B61A9D4104D3150F1B012B43120132
:10025000241D65467646AF07B6083E43AD08B61A7C
:100260009D4104D3950F9B002B439200A41C65462F
:100270007646EF0776083E436D08B61A9D411AD3BD
:1002800092185B41641C16E00018764665464941A9
:10029000B71A9D410191009009D36046B11A984167
:1002A0008E468446009801990025401C6941DD076F
:1002B00052082A435B08641EE6D57246634603B0C3
:1002C000F0BDFFE72046284307D00020C043014689
:1002D000C046C04622462B46F1E700200146F7E71C
:1002E0000FB41CB5074B06AA7B44694600900598DD
:1002F00000F0F9FC0020694600F008FD1CBC08BCB9
:1003000004B01847210A0000F8B50E460446002044
:1003100020622046E1688847002829D0252802D09D
:100320006268A16820E0E168204600278847050050
:100330001ED028464138192802D80127FF0220354F
:100340003246204627602946FFF7F8FE002808D0ED
:10035000012804D0F61DF608F6000836D9E7361D48
:10036000D7E762682846A1689047206A401CCFE71B
:10037000206AF8BDF7B5002575291068009914A604
:1003800011D0C046C046002802DA404211A608E05B
:10039000009909688A0701D50FA602E0490704D52C
:1003A0000EA6012501E0C046C046009F0024243768
:1003B00004E000F07BFF30313955641C0028F8D18F
:1003C0002B4632462146009800F025FAFEBD00007B
:1003D000000000002D0000002B00000020000000A5
:1003E0000FB400B58DB010A909900B900020C04348
:1003F00000910A9000200C90074878440690074826
:1004000078446A4607900F9909A800F01BFF0DB0C9
:1004100008BC04B0184700006B0E0000850E0000F9
:1004200030B505460B462A461C781078521C5B1CDA
:10043000002801D0A042F7D0002C03D0002802D021
:100440006D1CEFE7284630BD034670B502460B43EE
:100450009B070FD10E4CE60100E008C208C91D1B26
:100460009D433542F9D0D9B21170521C00290DD0EC
:100470001B0AF8E70B78491C1370521C002B05D09F
:100480000B78491C1370521C002BF3D170BD000077
:100490000101010130B5441C03E00178401C002932
:1004A0000DD08107F9D10B4BDD0104C8D11A91435E
:1004B0002940FAD0001B0A0603D0C01E30BD001B25
:1004C00030BD0A0401D0801E30BD0902FCD0401EA0
:1004D00030BD00000101010101E004C0091F042931
:1004E000FBD28B0701D50280801CC90700D00270A7
:1004F000704700290BD0C30702D00270401C491E70
:10050000022904D3830702D50280801C891EE3E7F9
:100510000022EEE70022DFE7002203098B4273D3BB
:10052000030A8B4258D3030B8B423CD3030C8B4200
:1005300021D312E003460B437FD4002243088B42B1
:1005400074D303098B425FD3030A8B4244D3030B5A
:100550008B4228D3030C8B420DD30902FF2212BA1F
:10056000030C8B4202D31212090265D0030B8B429B
:1005700019D300E0090AC30B8B4201D3CB03C01A85
:100580005241830B8B4201D38B03C01A5241430B60
:100590008B4201D34B03C01A5241030B8B4201D350
:1005A0000B03C01A5241C30A8B4201D3CB02C01ABB
:1005B0005241830A8B4201D38B02C01A5241430A33
:1005C0008B4201D34B02C01A5241030A8B4201D322
:1005D0000B02C01A5241CDD2C3098B4201D3CB01C9
:1005E000C01A524183098B4201D38B01C01A524178
:1005F00043098B4201D34B01C01A524103098B427C
:1006000001D30B01C01A5241C3088B4201D3CB0066
:10061000C01A524183088B4201D38B00C01A524149
:1006200043088B4201D34B00C01A5241411A00D2F9
:1006300001465241104670475DE0CA0F00D0494262
:10064000031000D3404253409C46002203098B42D2
:100650002DD3030A8B4212D38901FC2212BA030A5A
:100660008B420CD3890192118B4208D389019211DC
:100670008B4204D389013AD0921100E08909C30961
:100680008B4201D3CB01C01A524183098B4201D363
:100690008B01C01A524143098B4201D34B01C01A4E
:1006A000524103098B4201D30B01C01A5241C308C6
:1006B0008B4201D3CB00C01A524183088B4201D335
:1006C0008B00C01A5241D9D243088B4201D34B0050
:1006D000C01A5241411A00D20146524110466346A7
:1006E0005B1001D34042002B00D54942704763465E
:1006F0005B1000D3404201B50449002802DC491CCC
:10070000084000E00846C046C04602BDFFFFFF7F2C
:1007100070477047704700000121C9050123411847
:1007200042001B06D3185B0E0AD0C1100722D20666
:10073000891840075242D14201D5520089187047AA
:10074000090208D50146002A03D0C10FC9070020BD
:10075000704710467047420202D00020024970479D
:10076000072109050143F4E70000F87F10B50146B1
:100770009E240002CA15A307002A02D01843002AAB
:1007800004DBA21A002A0CDDD04010BD1206120EA6
:1007900001D140004008A21A03D4D04040420028B2
:1007A000F3DDFF2248001206904201D9002010BD5F
:1007B000C817C043584010BD1F22030C02D10F229E
:1007C00000041CD0030E01D10002083A030F01D12E
:1007D0000001121F830F01D18000921E002801DB4F
:1007E0004000521ED2055118021251181922904091
:1007F00004D3491C002801D1490849000846704724
:10080000C10FC90700D04042012292071143D3E72C
:1008100001218907D0E7FFB504460D4681B0243099
:1008200000902168880604D51022E0699143216078
:1008300000E00120A84201DD471B00E000270498EA
:10084000A1697A191018081AA0612078C00602D48C
:100850002046C046C046002608E003986268A168AA
:10086000805D9047206A401C761C20620498864276
:10087000F3DB2078C0060AD52046C046C04606E015
:100880006268A16830209047206A401C2062384688
:100890007F1E0028F4DC07E000986268A168405DD4
:1008A0009047206A401C206228466D1E0028F3DC19
:1008B0002046C046C0462078000602D5022005B07A
:1008C000F0BD0120FBE70000FFB50C461E468FB0CF
:1008D00003CA089009914F007D0D00D16D1E0021C3
:1008E00008460020C0460321099A89050840002ACD
:1008F00003DA8200801840080840800D01280A9021
:1009000002DD0020C0430A90089807430DD0F0484C
:10091000F049281848430714189800281DD075423C
:10092000291E1DDD0A9842421BE01898012802D0BA
:100930000020302104E00020F24305E02154401C57
:10094000B042FBDB30460022189B002121540F9956
:100950008B600A60486013B0F0BDBD1B6D1CDFE703
:100960000A9A002900DA69420BA800F02DFF0BABB0
:1009700007CB03AB07C30899099800F091FF6B46BA
:1009800007C30146D4480918002D00910BDDD24958
:1009900003980A9A49424018002303A90390684625
:1009A00001F0EEF908E003990A9A0023081803A958
:1009B0000390684601F08EF96B4607C30004000CF3
:1009C00003D00020C043410800E01046189A002AD6
:1009D00003D00022009215461EE0751E05D400F0DB
:1009E000A9FC303262556D1EF9D5012208430796E5
:1009F00002D000227F1C04E02078302801D10022A0
:100A00007F1E002A069787D01EE0112D07DA00F01E
:100A100091FC303262556D1C02460A43F5D1084301
:100A200003D00098002819D00EE00021681E05E0D0
:100A3000235C625C63542254401E491C8142F7DBF4
:100A4000A81B401E07950690079A18990020A054ED
:100A50000F98079B069A81600CC07CE71126002046
:100A6000189059E7D21DF0B50D460446D10893B051
:100A7000C90003C90C900D9103F06AFC02460D9861
:100A8000C00F01D02D2007E02068810701D52B2061
:100A900002E04007C00F4001032A0F9001D0072A4F
:100AA00005DB03462946204600F08AFC0EE120784B
:100AB000800601D5E76900E006272846652D04D0A9
:100AC000662814D0672D69D12DE00020112F0090E9
:100AD00001DB112300E07B1C0CAA03A910A8FFF77F
:100AE000F3FE1199002610987D1C0E9142E0012022
:100AF0003B460CAAC0070B900120009003A910A848
:100B0000FFF7E2FE119D12981099002600280E951D
:100B100001D1781C0D18781B02D446427D1C761E2C
:100B2000E81B00903AE0012F00DA01270020112F86
:100B3000009001DD112300E03B460CAA03A910A898
:100B4000FFF7C2FE11993D46109800260E912178BC
:100B500009070BD40E99A94200DA0D4603A9012D0D
:100B600004DD4A19203AD27F302A06D0B84201DA91
:100B7000011D04DA012100910FE06D1EEFE700284E
:100B800002DC86192D1A03E0411CA94200DD0D4646
:100B9000801B401C00900120C0070B9020780007AC
:100BA00005D40098A84202DB0020C04300906946AB
:100BB0000020C8720B98012102AF0337C907884291
:100BC00025D0022010902B2011900B9800280BDAD2
:100BD00040420B902D20119006E00B9800F066FB30
:100BE00030317F1E0B9039701099481E00291090EB
:100BF000F3DC0B980028F0D111987F1E3870208804
:100C0000000501D5452000E065207F1E387001A851
:100C1000C01BC01D0B900F98002800D00120411967
:100C20000098C01709180B980818A169081A401EE7
:100C3000A0612078C00602D42046C046C0460F9866
:100C4000002805D06268A1689047206A401C206295
:100C50002078C00625D52046C046C04621E0002E9B
:100C600007DB0E98B04204DD03A86268805DA168CE
:100C700002E06268A16830209047206A761C401C20
:100C800020620098401E002800900AD100F022FB4C
:100C9000C06862680168405CA1689047206A401C97
:100CA000206228466D1E0028D9DC07E0626838788B
:100CB000A1687F1C9047206A401C20620B99481E47
:100CC00000290B90F2DC2046C046C046032042E6D5
:100CD00001FCFFFF104D0000E1DFFFFF01694A1C2E
:100CE00002610878704700B58FB00291002105912C
:100CF0000549019379440391114604906846FFF732
:100D000003FB0FB000BD0000E5FFFFFF0A68107095
:100D1000521C0A6070470000FFB58BB00878FF28AE
:100D200006D0491C2D2805D000230020009009E0A2
:100D300000200EE00123F8E7009A0A24624380189D
:100D4000491C00900878FF28F6D1002B02D00098AB
:100D500040420090002503952C460D9800782D28E0
:100D600001D02B2815D10D99491C2D280D9102D0A9
:100D7000002003900DE00120FBE7401C21460027E6
:100D80000A223B460D90284600F0BCFA35183C4636
:100D90004C410D980678FF2EEFD100210846002027
:100DA000C0460399002902D0810040184008000283
:100DB000860F012E01DD0026F6430E990098471894
:100DC000284620430BD0FF20F530C7421ADA03989B
:100DD000C1070B98002E41600ADD012009E003984D
:100DE000C1070B9841600B99002008600FB0F0BD5F
:100DF00000200B99086000F071FA022101601821AF
:100E000008461AE0FF20F530874219DD002E02DA8D
:100E1000FC48784401E0FC48784406C80B9806C0BA
:100E20000B9803994068C90708430B99486000F084
:100E300055FA02210160142108460020C046D5E77A
:100E4000002108460020C04639000A9001D57242B0
:100E500000E03246002900DA794207A800F0B4FC2D
:100E600007AB07CB04AB07C3E8480090002001465E
:100E7000214304D12C460546E44920390091210C38
:100E80000904014306D1290C24040C4300992D04C4
:100E900010390091210E0906014306D1290E2402C2
:100EA0000C4300992D0208390091210F09070143D5
:100EB00006D1290F24010C4300992D01091F00912F
:100EC000A10F8907014306D1A90FA4000C43009983
:100ED000AD00891E0091E10FC907084304D10098B5
:100EE0006D196441401E0090002F0295019406DDAB
:100EF00032466846012304A900F0FAFE05E001230A
:100F00003246684604A900F048FF044603980D469F
:100F1000002802D00120C0074440002108460020DC
:100F2000C0460A99BA4E48400007800F07D16000BA
:100F30004008284303D06000400DB04214D100F0B7
:100F4000CDF9022101606000400DB0420CD1B148E2
:100F5000784406C80B9806C00B98E10FC907406893
:100F600008430B99486041E70B9844600B98056073
:100F70003CE7FFB51F4695B0002000250C909E6809
:100F80005C68ED43139000F0A5F9C0680168405C0F
:100F90001490B96916986D1C88470A90396A884779
:100FA0000028F6D10A98401C0AD00D20C0018443C5
:100FB000002E12DD0A982B2809D02D280DD103E030
:100FC0000020C04319B0F0BD012080020443B9697C
:100FD00016986D1C8847761E0A90600504A901D5F5
:100FE0002D2000E02B206A46491C107410A8002E0A
:100FF0000D910B903BDD0A98692805D0492803D054
:101000006E2801D04E281DD13B4603900220029647
:10101000179A1699C0430095019403F0FDFBC11C7B
:10102000D0D10FE0B96916986D1C88470A9001204D
:10103000761E40020443179805601398401C002E4A
:10104000139014DD0A983028ECD0782801D0582865
:101050000DD1139801280AD13B460296179A16998A
:10106000001F0095019403F0CFFBC11CAAD1149975
:101070000A98884245D18020044308E00C981799CB
:10108000401E0C90012040020443681C0860B969AE
:101090006D1C1698761E884730280A90EED030E0F6
:1010A0001499884205D1200603D480200443761E7B
:1010B0001DE00A9803F0ECF9002825D001210A98D8
:1010C00049020C430D9908AA03323038761E91422A
:1010D00008D208700D98401C0D90200607D50C987A
:1010E000401E03E0200602D40C98401C0C90A00582
:1010F00002D51799681C0860B96916986D1C884755
:101100000A90002ECCDC59E0002E57DD0A986528A5
:1011100001D0452852D1A00550D50320B96900025D
:1011200084436D1C1698761E8847002E0A900CDDAD
:101130002B2804D02D2808D1FF2001300443B969A1
:1011400016986D1C8847761E0A90E00501D52D2162
:1011500000E02B210B9801700B98401C0B90009025
:1011600025E0012012A9400204430B980131761EAC
:1011700088420ED20A980B9930380006000E08708B
:1011800003D100990B9888420AD90B98401C0B9008
:1011900006E0E00501D5204801E01F4840420C90E0
:1011A000B96916986D1C88470A9017980560002E3B
:1011B00004DD0A9803F06CF90028D2D1F969169879
:1011C00088470D99FF2004AA08700B990870002029
:1011D0000E900F900C9B10A90EA8FFF79DFDA00587
:1011E00002D40120C043EDE62420044216D0E007DB
:1011F00020D138680F9A0E99031D3B60006806C025
:1012000018E000003E3B0000303B00003E40000084
:10121000FF070000F8390000F1D8FFFF0EA968466B
:1012200003F0C0F8E00705D13868009A011D396065
:10123000006802602846C5E602685118137801600C
:101240001846704710B5D160054979445161054988
:101250007944116200211161114600F0F5F810BDCA
:10126000EBFFFFFF5B0100004268002A08D0016825
:101270000B78491C002B03D0521E06C0184670473D
:101280000121C160881E70474268002A0BD0C368E4
:101290000168002B07D183688B4204D0491E521C81
:1012A00006C0002070470020C043704701468008F8
:1012B000081A02091018020A1018020C1018C008A7
:1012C000820012185200891A01E0401C0A390A29CA
:1012D000FBD270470048704730000020004870473C
:1012E0001000002010B5202A04DB0146203A91406E
:1012F000002010BD914020239C1A0346E34019436F
:10130000904010BD4343514330B55C18010C130CA1
:101310000D4692B25D4380B251432C1905465543A8
:101320000A0C09044D1962415843010C000440198C
:10133000514130BD0B4670B502468907800808430D
:1013400019469D08141AA9412509080705430809EB
:101350002C194841250A01060D43010A2C19414167
:10136000200C0D0428430D0C00194D41002140199B
:101370004D41C00869070843E908840F8D002543E3
:10138000840024184D4124196D41121BAB4107E024
:101390000925ED432C11521963410024401C614181
:1013A0001C460A250026551BB441F1D270BD10B56C
:1013B000044600F059FD0068005DC007C00F10BD75
:1013C000F8B51F46044601230068DB0203260146E8
:1013D0001840072A05DB002801D017A506E017A54D
:1013E00004E0002801D016A500E016A510208143D6
:1013F0002160A069C01E002FA06101D0401EA06125
:101400002046C046C046002F09D038466268A16811
:101410009047206A401C2062C01C206206E0206ABF
:10142000FAE762682878A1686D1C9047761EF8D2AA
:101430002046C046C046F8BD4E414E006E616E006B
:10144000494E4600696E6600F3B50C468FB0002029
:101450000C90012000260E9008460C300390626923
:10146000039801219047051E2ED0252D2DD0216AED
:101470008847002818D06269039801219047216AA3
:1014800088470028F7D16269411E0398904700E021
:10149000761CA1690F988847216A88470028F7D1F0
:1014A000E1690F988847DAE7A1690F988847A84251
:1014B000074601D1761CD2E7E1690F9888477F1C67
:1014C00002D10C98002877D06BE16269039800275D
:1014D0003D46394690472A280CD16269039801217C
:1014E0009047012506E00A214F433F18303FEBD4D7
:1014F0001020054362690398012190470146303965
:101500000A2903D2AC498F42DEDCECE7E90600D4BD
:10151000AA4F6C280AD04C2810D0682824D06A28FA
:101520002ED074280CD07A280AD00DE06269039876
:10153000012190476C2823D004211CE02020054382
:101540006269039801219047A760652865604FD0C4
:1015500026DC582839D01ADC452849D012DC252849
:1015600034D04128B0D143E062690398012190470B
:10157000682802D008210D43E6E70120C002DEE71B
:101580000220DCE7462833D047289DD130E05B2895
:1015900070D061282CD063286CD0642894D161E08D
:1015A0006F284FD009DC662822D0672820D0692810
:1015B00026D06E2817D12EE0EFE070284DD073288A
:1015C0006FD075284ED078280DD154E0A1690F98BE
:1015D00088472528054600D16CE7E1690F988847C0
:1015E0006D1C00D16DE7DCE00A224CE00A2252E0DB
:1015F000012023466A460F99C04303F0FDF8C5E079
:1016000040212846234608436060A80701D50022F0
:1016100039E000223FE0E80700D020E72068011D04
:1016200021600068290501D5067018E7290701D552
:10163000068014E7A90703D5F117066041600EE79D
:1016400006600CE740212846234608436060A8074F
:1016500001D5082217E008221DE059492846084014
:10166000606016E040212846234608436060A807D2
:10167000BCD5B9E715E04021284608436060A807BB
:1016800007D52346102201200F99C043C046C0460B
:101690007CE01022234601200F99C043C046C0467B
:1016A00074E0002163280B460191009102910D9195
:1016B00002D05B2807D03BE0E80601D40120A060FF
:1016C0000120009034E0E06801210D9062690398E8
:1016D00090475E2807D101200190E06801210D901C
:1016E0006269039890472169002906D10B4604AA34
:1016F0008F00491C0829D351FADB002851D02169F9
:10170000002926D00298401C0290626903980121AA
:1017100090475D28F1D10198002808D0002004AB43
:101720008100401C5A58D24308285A50F8DB04ABB9
:101730002069002820791CD04007029A00980D9B50
:101740000092224602901F480F991DD5C046C04600
:101750001CE0C117C90E09184A114909930004AACF
:101760009A184901411A1368012088400343136005
:10177000CBE74007224613480F9902D5C046C04622
:1017800004E0C046C04601E0C046C04600280ADA70
:10179000401C06D10E98002803D00020C04311B091
:1017A000F0BD0C98FBE7E90702D10C99491C0C919C
:1017B000361800200E9052E6CCCCCC0CFFFFFF7FF9
:1017C000F1F7FFFFFEFFFFFFF7B516468AB033487B
:1017D00078446C4603467C33C06F5A689B680DC4DE
:1017E0002E487844763003AC0DC80DC43720C001B4
:1017F000081837211B30FEF79DFE05460C46803D3C
:101800001B3C02D56442012000E000200027099023
:1018100010E0E0070CD00C20204978437944324690
:101820004C3941186846012300F054FA6B4607C34F
:1018300064107F1C002CECD1184F7F442E3F16E023
:10184000E80712D02001C0190EC80691089307922C
:101850000068F04201D1981908903246012306A988
:1018600003A800F037FA03AB07C36D10641C002D0A
:10187000E6D10998002806D032466946012303A81C
:1018800000F07EFA05E001233246694603A800F025
:1018900021FA0A9B07C30DB0F0BD000054300000D0
:1018A000034640000A4610B5400D0BD00121C90780
:1018B0000F24A40200191C0364082143540D214382
:1018C000D20207E000210120F2E7D40F49002143B2
:1018D0005200401E0029F8DADB0FDB07184310BD69
:1018E000FFB50D46144685B04868516802F017FDF3
:1018F00000910190A868A16802F011FD0291039087
:10190000A868616802F00BFD029A121882420292E6
:1019100001D2012000E00020019A0B18D218002803
:10192000019202D08A4202D903E08A4201D2012008
:1019300000E000200099081800906868A16802F093
:10194000EEFC029A12188242029201D2012000E0BB
:101950000020019A0B18D2180028019202D08A4266
:1019600002D903E08A4201D2012000E00020009960
:10197000081800902868216840004900400849087C
:101980004018FA49471814E001994000C90F08436C
:101990000090019802994000C90F084301900298F5
:1019A00003994000C90F08430290039840007F1E2E
:1019B000039000980028E7DA0898002801D0EC4E40
:1019C00000E00026B74201DA012000E000200028F4
:1019D00004902AD0F71BF806C00E15D0029B2021D8
:1019E000091A039A8B401A430392029A019BC24040
:1019F0008B401A430292019A009BC2408B4000998F
:101A00001A430192C14000917B110DD06F46032013
:101A1000C11A03D500218200B95003E08A00810079
:101A2000BA587A50401EF3D53746039802990028D9
:101A300000D00120014308980291002808460CD0EC
:101A4000002800D001200199019A4905084301218D
:101A5000D20AC902D202019200E001210E9B0122AA
:101A6000D207012B02D0002B03D013E0002807D1AE
:101A700020E0904204D890420CD1019B0B4209D047
:101A8000019B5918019105D10099491C009101D180
:101A90007F1C009200280DD0102108460020C0466F
:101AA0000498002806D00F98002803D00821084683
:101AB0000020C04628682168019B009A4840C10F59
:101AC0000598C90739430EC009B0F0BDFFB587B00E
:101AD000099A0898089953689268406889689646F8
:101AE0000022039317469446089A12685300099AF5
:101AF0005B081268520052089A1A9E4BD4180A9A30
:101B0000002A01D0352200E0402206920022012363
:101B100015460492DB07059324E0002D05D1754698
:101B20000346039E4D1BB34109D375466646039B8E
:101B3000491B049D9841059B7519AC465F4163465E
:101B40003B4308D0059B049EDD0776082E435B08C7
:101B50000496059301E0521E641EC50FED07491857
:101B60004041521C069B9A42D7DB002D04D175469A
:101B7000039A6B1A824101D203200CE0039A0B46B0
:101B80006B404240134303D0014303D0012002E0E5
:101B9000022000E00020614601910021009702919F
:101BA0000A99002905D0614640020143704B01911A
:101BB00002E08007002302909C4201DA012000E04D
:101BC000002007003AD01A1BD006C00E15D0029D87
:101BD0002021019C091AC5408C402543029C8C4061
:101BE00000D001242543019C0295009DC4408D40F6
:101BF00000992C430194C140009154111DD06D46B1
:101C00000221002202290CD10320001B07E000283A
:101C100004DB8600AE59002E00D00122401C0328B0
:101C2000F5DB081B02D588002A5004E08000285804
:101C300010438A00A850491EE3D51C460A98002884
:101C400002980CD0002800D001200199019A490582
:101C500008430121D20AC902D202019200E0012107
:101C6000109B0122D207012B02D0002B03D013E0DE
:101C7000002807D11FE0904204D890420CD1019B6C
:101C80000B4209D0019B5918019105D10099491CBB
:101C9000009101D1641C009200280CD0102108464C
:101CA0000020C046002F06D01198002803D008213C
:101CB00008460020C04608980999019A009B0068D0
:101CC00009684840C10F0798C907214382600AC0CC
:101CD0000BB0F0BD00B585B0019300920A460146F5
:101CE000002302A8FFF7FCFD02A807C805B000BD4D
:101CF000FFB50A461F4685B007990193012300915D
:101D0000014602A8FFF7ECFD02990398049ECA0F52
:101D10004900D20700920F22490892028C1A002132
:101D2000002800DB0C46450013486D08844214D39C
:101D3000079A002A04DA441E0026104DF64302E0FA
:101D400004460D460E46102108460020C046002FCE
:101D500003D0042108460020C0462005E90A0843B4
:101D6000009908436905F20A1143ADE602C0FFFF7E
:101D7000013C0000FF3F0000FF070000FFFFFF7F66
:101D800000B585B0019300920A460146002302A8DF
:101D9000FFF79CFE02A807C8A8E7FFB50A461F4642
:101DA00085B00799019301230091014602A8FFF72E
:101DB0008DFE02990398049ECA0F4900D207009233
:101DC0000F22490892028C1A0021002800DB0C46E1
:101DD000450011486D08844214D3079A002A04DA9A
:101DE000441E00260D4DF64302E004460D460E4605
:101DF000102108460020C046002F03D004210846C9
:101E00000020C0462005E90A0843009908436905F7
:101E1000F20A114358E60000FF070000FFFFFF7FB2
:101E200000487047100000207546FFF7F9FFAE46E6
:101E3000050069465346C008C000854618B020B565
:101E4000FEF7B4F960BCB64600260027C0C5C0C581
:101E5000C0C5C0C5C0C5C0C5C0C5C0C5403D490896
:101E600049008D467047000010B5FFF733FA001D9A
:101E700010BD00BF2127000010B5FFF72FFA006842
:101E800010BD10B50446FFF729FA046010BD00002C
:101E9000FFB51F4689B0139812994005C00FC007BF
:101EA00005900020079005460446461E04900290C7
:101EB0003C20491C12910690B9690A988847039002
:101EC0001498401E14901498002841DD03982E2881
:101ED00016D0102100F0B2FA002834DB0121049161
:101EE000079901431AD0069900290CDB069AC117FD
:101EF000FFF7F8F9054306980C43001F069006E02B
:101F0000012002900EE0002801D0012005430120AD
:101F100007900298002805D1361D03E0029800289A
:101F200000D0361F1298401C1290B9690A98884751
:101F300003901498401E149004980028C3D00B9965
:101F400012980860BFE70398702808D0502806D080
:101F5000F9690A9888470498002815D051E00020B4
:101F6000039001200290049800280AD01298401C87
:101F70001290B9690A9888471499491E002914914A
:101F800006DCF9690A9888470120C0430DB0F0BD0E
:101F90002B2804D02D280DD10020C0430290129888
:101FA000401C1290B9690A9888471499491E002963
:101FB0001491E6DD411CE4D00A2100F03FFA00282C
:101FC000DFDB03990A225143081803901298401C42
:101FD0001290B9690A9888470A2100F02FFA1499DB
:101FE0000B9A491E1491129911601499002901DD70
:101FF0000028E6DAF9690A98884702990398484365
:10200000861913982421084004902846204304D0C0
:10201000A10F8907090002D006E005989BE0A90FEF
:10202000A4000C43AD00B61EE10FC907080002D1A1
:102030006D196441761E0498002803D00B2002908D
:102040005D4803E0282002907D20C0438642039033
:1020500007DA811B029808184128029001DD41200F
:102060000290029A01200021521EFFF73BF902461E
:1020700028400B462140084301D0012000E0002009
:1020800007900020521EC04343412A4023401A4378
:1020900001D0012000E0002007990690014352D0B2
:1020A000002108460020C0460321059A8905084002
:1020B000002A05D082008018C20F10184010084076
:1020C0008015012802DD0020C04301E0012815D061
:1020D000401C38D00798002835D0069800280DD12C
:1020E000029A01200021FFF7FDF828402140084313
:1020F00001D0012000E00020002824D0029A012015
:102100000021FFF7EFF8034640198C4661412A1A77
:102110008C410FD30298402807DD0498039E0028C5
:1021200001D0343E02E0173E00E0761C0124002579
:10213000E40708E05B1E62460024E4436241DD439D
:10214000D44305400C4003980121081AB04206DA36
:102150001A49059808430190002000900EE06000A5
:102160006205010BE80A1043059A009068460A438D
:1021700013490A433146019202F080F9049800287D
:102180000AD01398C00714D13868019A0099031D2A
:102190003B60006806C00CE002A8694602F002F944
:1021A0001398C00705D13868029A011D396000688C
:1021B00002601298EAE6000002FCFFFF0000F07FD8
:1021C0000000F03FFFB51D4687B01198484A109CAB
:1021D000129E40051399C00F761EC007024301925C
:1021E00000220092FF22D205104320229143492968
:1021F000059003D017464E2928D04FE03DA002AAF3
:102200000BC801270BC2A9690898641C8847761E71
:10221000014607D402A8C05D002803D020229143C4
:1022200081420AD0E96908988847032F36D0082FE1
:1022300034D00120C0430BB0F0BD7F1C032F01D070
:10224000082FE0D10999601C0860DCE7A9690898AB
:10225000641C8847761E2DD4B84341282AD1A96929
:102260000898641C8847761E24D4B8434E2821D190
:10227000A9690898641C884701990122D204114376
:1022800001910599D200114305910999761E0C60C0
:1022900001D4282806D0E969089888471198C00712
:1022A00012D023E0A9690898641C8847761E01D4DF
:1022B000002803DAE96908988847BAE72928F1D1A4
:1022C0000998641C0460E9E711982421084207D0AA
:1022D0002868019A0099031D2B60006806C005E07C
:1022E00028680599021D2A60006801602046A2E75F
:1022F0000000F07F494E46494E4954590000000005
:1023000010B50446C046C0462046FDF73FFF10BD4D
:1023100082078B079A423FD170B5920F0AD00324EF
:1023200002780B78401C491C002A33D09A4231D1E4
:102330002042F5D1214EF40104C808C9951B9543EC
:10234000254018D19A420FD104C808C9951B95435E
:10235000254010D19A4207D104C808C9951B95435E
:10236000254008D19A42E7D012BA1BBA01209A42FE
:1023700000D2404270BD12BA1BBA2DBA1824100008
:10238000E0401900E140401A05D12E00E64002D19C
:10239000083CF4D1D01A70BD02780B78401C491C5F
:1023A000002A09D09A4207D102780B78401C491CB8
:1023B000002A01D09A42EFD0D01A704701010101E2
:1023C0000246C80FC00781434B0030B54B405B004D
:1023D0009B0D20D01923DB06C91801231B05994248
:1023E00020DB0324A40704251346AB400BD3002BAA
:1023F00004D1EB0613409B00E34204D4012464079C
:10240000002312195941FF231B0599420BD2C90021
:102410000143500F09E0CB0204D5014308030243F6
:1024200005D0054830BDFF21C905084330BD084629
:1024300007210905884330BD0000C07F3A2800D23B
:102440003038202302469A43412A01D310463738B8
:10245000884201D30020C04370470000F8B5264CE5
:102460004E00069DA6420AD8A64201D1002806D1F8
:102470005E00A64203D8A6420AD1002A08D00D2445
:102480002404254233D02946002000F06DF8F8BD21
:102490000C461C4311D4994207D0C81A02D3EFF35B
:1024A0000080F8BDEFF30080F8BD801A02D3EFF38F
:1024B0000080F8BDEFF30080F8BD09242407E50093
:1024C0008B4207D0581A02D3EFF3008006E0EFF3F7
:1024D000008007E0101A03D3EFF30080A04303E06D
:1024E000EFF30080A043284380F30088F8BD0095F7
:1024F00000F052F8F8BD00000000E0FF70B505469E
:102500004800440D124B0020002C0AD0634008D034
:102510009A4206DA6642B24203DD12054019514181
:1025200070BD002C08D0002B09D0C90FC907002AA4
:10253000F6DB084A114370BDC90FC90770BD2846B4
:102540000A03104302D00020034970BD284670BD25
:10255000FF0700000000F07F0000F87F014918200D
:10256000ABBEFEE726000200C80212D54803400FAA
:10257000002804D0C803C043012188407047EFF30E
:1025800000800001000903210907084380F3008847
:10259000704700207047000010B500200249029AE1
:1025A00000F005F810BD00000000F87F704710B57E
:1025B0000C461107090F092904D00A290AD0082955
:1025C0000CD104E011460820FFF7CEFF06E05106CB
:1025D00006D501E0510601D50120C007214610BDF6
:1025E000D10607D501010909CC084907000E0006EC
:1025F000044309E0410F20024907000A0143200E6D
:1026000000061D22D14101430846E7E780B5024894
:1026100000F008F880BDC046D4060020EFF310801B
:1026200072B6FEE7F0B585B0016C03910C680668E0
:1026300031680425019129404A424A410490416C85
:102640001C230B402F469F403946029421404C42A8
:102650004C4114432FD0009601200227019E3146A1
:1026600039404D424D419F40029C2742024601465F
:1026700000D0294604980546243500292AD008218F
:102680000E4077427741DC40210700D53A46002AC8
:102690001ED1009C22680E218A432260012211462D
:1026A0009940039B5960C263002129706A70416B95
:1026B00000290CD10CE03068800602D43068A843B1
:1026C0003060039847600498016B002900D0884768
:1026D00005B0F0BD009B1968890605D41A680A2167
:1026E0008A431A60012169700021297003994F60A3
:1026F000C16A0029EBD1EBE7F0B585B0002841D0E5
:102700000446054624350220687020482064266867
:102710001F483018142101F007FD8000009060640C
:1027200031681C4B0B40A268E16827696069019021
:10273000A0690290E0690390206A0490194339432C
:10274000019801430298014303980143049801430F
:10275000114331600121880382420DD01C20009E6C
:1027600006400F20B0400C4A136883431360606832
:10277000B0401368034313600020E0632870697061
:1027800005B0F0BD012005B0F0BDC046000002401C
:10279000F8FFFDBF0F80FFFFA8000240F0B582B038
:1027A00004462420255C0220012D2BD001922646D0
:1027B0002436012232707778012F21D102207070E7
:1027C0000020E0632668376897433760256C0095E2
:1027D000676C1C253D401746AF40009D6F607360DD
:1027E000A368102B019F00D00F46B760102B00D0BC
:1027F0000199F1603168236B002B05D00E2308E0AE
:102800000021317002B0F0BD042399433160336878
:102810000A211943316031681143316002B0F0BDC3
:10282000B0B5044600F0D4F80546601C02D08848D4
:102830000078041900F0CCF8401BA042FAD3B0BDD8
:10284000F0B58AB0019009910A68002A00D1B7E07A
:102850005C48019B834201D0062000E005200B214B
:1028600009075B180A21CB410093042B00D3009089
:102870000026354634460BE01143F960641C099884
:1028800002681046E040B61C2D1D002800D197E0DC
:1028900001210846A0400240F0D002940492059124
:1028A000089503252946B140CA43099934464E6824
:1028B00033462B405F1E012F07920696039410D8D3
:1028C0000F4601998D681540FF68A7402F438F6020
:1028D000F506ED0F029CA5404F6887432F434F60DC
:1028E00008E0032B029C05D12B46019F089D049A0A
:1028F000039E22E0019FF8680799084009998D68B6
:10290000039EB5400543FD60022B089D049A14D137
:102910001C2028400F218140E3089B00FB180693F0
:102920001D6A8D43099B196981402943089D0698BA
:1029300001625868032306900340B3403868079942
:1029400008401843386006988003800F059B95D097
:1029500046490868184308600C2028400F21814030
:10296000032325469D43194FEB598B430099814022
:102970001943E951144F396809984068C30301D5D8
:10298000114300E09143089D3960796883030AD5BB
:1029900011437960B968C3020AD49143B960F968F8
:1029A00080020BD568E791437960B968C302F4D51A
:1029B0001143B960F968800200D55DE791435CE797
:1029C0000AB0F0BD001C00500004014008000140A6
:1029D000054800687047C0461D48007802490A68EB
:1029E000101808607047C0462408002080B50848C9
:1029F000016840220A430260032000F00BF800281F
:102A000001D0012080BD00F027F8002080BDC04625
:102A10000020024070B504467D20C0000C4E317885
:102A200001F082FB01460B48006801F07DFB00F0DD
:102A30005FFD0125032C08D8002806D10025E843B6
:102A400021462A4600F020F87460284670BDC04632
:102A50000000002008000020044801680122114302
:102A60000160110742680A43426070473410024017
:102A7000002805D41F210840012181400148016040
:102A80007047C04600E100E0002805D40322034659
:102A900093430A4A9A1803E00C220240064BD218CC
:102AA0008007C00E8901C9B28140FF2383401068AE
:102AB000984308431060704714ED00E000E400E024
:102AC000F0B589B002680125EB0219462031714C3E
:102AD0000A4200D198E0039308902907143C20682B
:102AE0000840069002D120680843206004940591B4
:102AF0002F02694C2068C00511D42068384320603B
:102B0000FFF766FF06462068384208D1FFF760FFEE
:102B1000801B6428F7D90325284609B0F0BD032699
:102B200034055C484C380790016821400898436898
:102B30001A46224001963604914202940AD18268D4
:102B4000224091421C46079B0DD021463140B142A4
:102B500006D008E019463140B1421C46079B02D11D
:102B600019688903D8D44B494968314033D022468B
:102B70003240914202D00278920607D482683240F5
:102B8000914228D00168039A114224D041494A68F1
:102B90000392EA044B6813434B604B6893434B60CA
:102BA000079B039D2A46B2434A603D4213D0FFF77C
:102BB0000FFF0546C04C374F7868800508D4FFF7F3
:102BC00007FF401BA042F7D9019D284609B0F0BD80
:102BD00008984468079B21463140B14208D1029AC7
:102BE0001440032212051D461B68934323432B60A8
:102BF000284C62680A4362600699002904D1049B4C
:102C00001968059A914319600368D9070BD1990790
:102C100011D4590717D419071ED4590625D40025F5
:102C200019062DD478E7216803229143C2680A432C
:102C300022609907EDD521680C22914302690A436D
:102C400022605907E7D50321890222688A43416936
:102C5000114321601907E0D50321090322688A4343
:102C60008169114321605906D9D50121890622685D
:102C70008A43016A114321600025190600D44BE7FD
:102C800003218A0421689143C069084320602846D3
:102C900009B0F0BD4C10024000700040F0B583B0A8
:102CA0000290002846D00E4682480068012101911A
:102CB0000840B04216D27F4908680125A843304336
:102CC00008607D4CFFF784FE07467A48006828407C
:102CD000B04207D0FFF77CFEC01BA042F5D903200D
:102CE00003B0F0BD029800688107814D06D52968C0
:102CF000F0229143029A92680A432A60C0071CD1CD
:102D00006C48006801273840B04225D969490868F5
:102D1000B8430860684CFFF75BFE054665480068ED
:102D2000C00719D0FFF754FE401BA042F6D903207C
:102D300003B0F0BD012003B0F0BD029842682946FF
:102D40000C39012A32D0032A35D0022A39D1096838
:102D50008903019833D538E0029800684107644C34
:102D600007D50721090222688A430299C9681143DD
:102D70002160000708D50720C0022168814302981E
:102D80000069C0000843206021680807820F73486B
:102D90007A4412795200974401617F6838042146D1
:102DA000083909680904490F884075E0096849072E
:102DB000019804D509E009688901019805D403B098
:102DC000F0BD096889050198F9D5296803200190AB
:102DD000814311432960FFF7FBFD074602984068D5
:102DE000354C032811D002281DD0012829D128688C
:102DF0000C210140042900D182E7FFF7E9FDC01B47
:102E0000A042F4D9019803B0F0BD28680C2101401C
:102E10000C2900D174E7FFF7DBFDC01BA042F4D9F9
:102E2000019803B0F0BD28680C210140082900D1A9
:102E300066E7FFF7CDFDC01BA042F4D9019803B0AF
:102E4000F0BD28680007800F00D159E7FFF7C0FDEB
:102E5000C01BA042F5D9019803B0F0BD20460C3844
:102E60000068C00612D53F4816E08A02120F3C4B9C
:102E70009A5C0902890F491C2368DB0309D42046A8
:102E80000C380068C00603D4374802E0364803E037
:102E90003448504301F048F921680906090F074AF0
:102EA000515CC8401149086005480068FFF7B2FD51
:102EB00003B0F0BD0020024088130000BC480008A9
:102EC0000400002009480068094909684905490FBC
:102ED000084A515CC84070470448006804490968C2
:102EE0008904490F034A515CC8407047080000201C
:102EF0000C100240CC48000810B5804AD168080781
:102F0000830F16487B441B795B009F440108070D23
:102F10000120000451680904490F884010BD106861
:102F2000C00613D50F4810BD8B021B0F0C4CE35C81
:102F30000902890F491CD468E40303D41068C00651
:102F400006D40948584301F0EFF810BD064810BDFB
:102F50000448584301F0E8F810BDC04600127A005A
:102F6000D448000800093D000024F400F0B589B001
:102F7000002856D0614EF1680C220A4006920121C9
:102F800005910904F76804910F4007900078C00785
:102F900010D00698082806D006980C2800D0CFE05C
:102FA000002F00D1CCE03068800303D5079840683B
:102FB00000284AD007980078800735D40798007811
:102FC000C00645D40798007800075FD407990878B1
:102FD000400700D594E00878800600D51BE10798EB
:102FE000846A002C1AD006980C2800D067E1012CC6
:102FF0002BD0F068049A0240079BD96A8A4224D1F8
:103000000F21890401401A6B91421ED103218905C9
:103010000840596B8842059800D053E2002009B05F
:10302000F0BD012009B0F0BD079BD86806990429BE
:1030300006D006990C2900D0ADE0002F00D0AAE000
:103040003168490739D5002837D1059809B0F0BD56
:103050000698002800D1B4E030680799C9690029B2
:1030600000D108E101210A02104330604C02FFF751
:10307000AFFC05463068204200D00FE1FFF7A8FC06
:10308000401B0228F6D9032009B0F0BD306D079926
:103090004969002900D1DDE0012108433065FFF7CF
:1030A00097FC0546306D800790D4FFF791FC401BDC
:1030B0000228F7D9032009B0F0BD1F210902726868
:1030C0008A431969090211437160316809229143E9
:1030D00001433160F1680807820FFB485200C04687
:1030E0007A4492885200974403002001DE012601B1
:1030F00070680004410F04988840D4E10010024039
:1031000001221107B06B0840029002D1B06B084356
:10311000B063019103921402F24F3868C00525D4C0
:10312000386820433860FFF753FC05463868204272
:103130001CD1FFF74DFC411B03206429F6D9C1E1E6
:103140000798406805994C040499884209D00521E4
:103150000904884200D0C9E0059880043168014321
:1031600031603068049908433060CFE00798806888
:10317000002800D122E1052109028842039A00D1EA
:1031800033E1A04200D134E1306DA04330659102BB
:10319000306D88432FE13168002800D1DDE009223D
:1031A000914301433160FFF713FC05463068400747
:1031B00000D5F9E0FFF70CFC411B03200229F5D9EB
:1031C00080E130688005079B03D5D869002800D1CD
:1031D0003BE70720400371688143586A01437160EF
:1031E000FF21090672688A43196A09068918716005
:1031F000400B04998140F0680006000FB64A105C4D
:10320000C140B6480160B6480068FFF703FC0028DB
:1032100000D057E1D6E6B06807998969002900D146
:10322000ACE001210843B060706B08437063480351
:10323000AE490A6802430A60FFF7CAFB0546B06858
:10324000800700D5CBE6FFF7C3FB411B0320022913
:10325000F5D937E1012188433065FFF7B9FB054611
:10326000306D800700D4B1E6FFF7B2FB411B0320AD
:103270000229F5D926E101210A02904330604C026F
:10328000FFF7A6FB05463068204200D19AE6FFF71B
:103290009FFB411B03200229F5D913E107204003BE
:1032A00071688143079A506A08437060FF200006E6
:1032B00071688143106A00064018706082E6012739
:1032C0003806316881433160FFF782FB0546022CE6
:1032D00000D0AAE07F063068384200D1C1E0FFF795
:1032E00077FB411B03200229F5D9EBE03168049AF2
:1032F000914331603168114008910899059989041A
:1033000032688A433260002800D19CE0FFF760FBFE
:1033100005463068204200D04CE6FFF759FB401BC1
:103320006428F6D9032009B0F0BD3068C00600D487
:1033300087E06748B7E08A02120F644B9A5C090283
:10334000890F491CF368049C234200D0A8E0306830
:10335000C00600D5A3E05F48A2E0012081433160B0
:10336000FFF736FB05463068400700D426E6FFF736
:103370002FFB411B03200229F5D9A3E0012188433B
:10338000B060480359490A6882430A60FFF720FB8E
:103390000546B068800700D421E6FFF719FB411B02
:1033A00003200229F5D98DE01F20000271688143B6
:1033B00007980069000208437060FFE5306DA04384
:1033C0003065039A9002316D814331655402464F56
:1033D000FFF7FEFA0546306D20421CD0FFF7F8FAE1
:1033E000411B0320B942F6D96CE09002316D0143D4
:1033F0003165306D2043306554023B4FFFF7E8FAEA
:103400000546306D204206D1FFF7E2FA411B03204A
:10341000B942F6D956E002980028079900D0DAE5BB
:10342000B06B019A9043B063D5E57C0630682042CA
:1034300000D1F3E5FFF7CCFA411B03200229F5D9AF
:1034400040E024482FE0FFF7C3FA054630682042E9
:1034500000D1AFE5FFF7BCFA411B03206429F5D981
:1034600030E0FD200004F1688143079B2C330DCB35
:10347000084310431843F0602748401C316801435B
:103480003160FFF7A5FA04463068384200D0C5E540
:10349000FFF79EFA011B03200229F5D912E00C4820
:1034A000504300F041FEF1680906090F0A4A515CD9
:1034B000C8400A4908600A480068FFF7ABFA0028CC
:1034C00000D17BE509B0F0BD00127A00D4480008B5
:1034D00000093D000024F400BC480008080000205A
:1034E000040000200070004088130000200001400C
:1034F000401E010E01D0012070470749074A506065
:10350000074803680B400321890759180160002010
:103510009060072111607047FFFFFF0010E000E09E
:1035200020ED00E070477047F0B583B0002841D02F
:10353000044607467437806F002804D10020387095
:10354000204600F057F82420A06720680168012574
:10355000A9430160204600F0DFFA012827D0606A05
:10356000002802D0204600F0C2F90920C0022168DC
:103570004A6882434A6088682A22904388600868C3
:103580000126304308600025FD60FFF721FA03465D
:1035900020680168090713D51548009071050022BD
:1035A0002046029300F0B6FB002807D003252846EA
:1035B00003B0F0BD0125284603B0F0BD2068029B92
:1035C000006840070CD50A480090B105002220464B
:1035D00000F0A0FB002803D00325284603B0F0BD6F
:1035E0002020A067E0673D702566284603B0F0BD47
:1035F000FFFFFF01F0B587B004460026069605964A
:1036000004960396029600682A49884235D02A49D2
:1036100088424DD101208103284A93680B4393606F
:103620001168014311601168014001910420069066
:1036300003270597049602200390780202900198D0
:103640000520000702A9FFF7FBF81D4D2E62202080
:1036500080211C4A84C52E606E60A960EE602E61D8
:103660006861083D2846FFF747F8002801D0FEF7BB
:10367000D5FFAC62256707B0F0BD012041040F4AB9
:10368000D3680B43D3601168014311601168014096
:1036900001910420069003200590049602200390D7
:1036A0000C20029005200007019902A9FFF7C8F835
:1036B00007B0F0BD00440040003801402C1002402B
:1036C000D406002030000240F0B583B013460A460D
:1036D0000446C16F0220202912D10125002A0CD0F6
:1036E000002B0AD001263103A5688D420CD1D107E9
:1036F0000AD02169002907D13546284603B0F0BD1C
:103700000546284603B0F0BD27465837397F0129C2
:103710000546F2D0002525663E7720682C49884270
:1037200013D04068000210D5EFF31080029086F3AA
:103730001088B0060190206800900168019801434C
:1037400000980160029880F31088BD623B8062653A
:103750002220E067206F002815D02049C1621E4951
:1037600001631C494163856321682431FFF716F822
:10377000002808D01020B8623D772020E067354649
:10378000284603B0F0BD3D77EFF31081012080F3B0
:103790001088020223681E6816431E6081F3108899
:1037A000EFF3108180F310882268936803439360DD
:1037B00081F31088EFF3108180F31088206882680D
:1037C00040231343836081F31088284603B0F0BD83
:1037D00000480040C1390008FD3A0008713A00086D
:1037E00070477047F0B587B017460646826F0220D3
:1037F000202A19D10125002913D0002F11D001252D
:103800002C03B268A24204D1CA0702D03269002A4E
:1038100007D006950394344674342278012A05466D
:1038200006D1284607B0F0BD0546284607B0F0BDD2
:10383000049105932046344650340025C56002901B
:10384000069901702120B067FFF7C2F806906780E3
:103850002780B0680399884202D13069002802D0DD
:10386000049F049500E000270599029805700CE07C
:10387000049A10881849084031688862921C0492A2
:103880002F4605996088401E60806088002810D00F
:1038900000918021002530462A46069B00F03AFA26
:1038A000002810D1002FE3D03878316888627F1C5F
:1038B000E7E700914021002530462A46069B00F0AC
:1038C00029FA002803D00325284607B0F0BD2020A0
:1038D000B067284607B0F0BDFF010000FEE7FEE735
:1038E0007047704780B5FFF777F880BD7047B0B577
:1038F000416ACA070CD18A0714D44A071CD40A07A4
:1039000024D4CA062CD48A0634D44A063CD44CE0CB
:103910000122520403685C689443826A22435A601D
:103920008A07EAD50122120403685C689443C26ADC
:1039300022435A604A07E2D50122920403685C6878
:103940009443026B22435A600A07DAD50122D2035C
:1039500003685C689443426B22435A60CA06D2D51E
:103960000122120303689C689443826B22439A608D
:103970008A06CAD50122520303689C689443C26B2D
:1039800022439A604A0610D5012213050268546842
:103990009C43056C2C4354609D4206D103235B0578
:1039A00054689C43436C23435360090607D50121A7
:1039B000C904026853688B43806C18435060B0BDE3
:1039C000F0B581B0806A816FC36F024652320468DD
:1039D000A5682D0612D5212910D100211180EFF301
:1039E0001081012484F3108804682568C026B5433B
:1039F000256081F3108820218167046801468031A9
:103A0000A46864062CD5222B2AD100231381EFF35E
:103A10001084012282F3108809256D010668376839
:103A2000AF43376084F31088EFF3108482F310887B
:103A30000568AE689643AE6084F31088046E012C6E
:103A40000AD1EFF3108482F31088026815681026FB
:103A5000B543156084F310882022C267436603666D
:103A60000A68102313430B60FFF75DFD01B0F0BD42
:103A700070B50146806A02465832096809688906AD
:103A800032D400215180EFF31083012181F310889B
:103A90000C0205682E68A6432E6083F31088EFF3AE
:103AA000108381F310880468A5688D43A56083F3B3
:103AB0001088EFF3108381F310880468A56840260E
:103AC000B543A56083F310882023C367036E012BE1
:103AD0000AD1EFF3108381F3108801680C68102578
:103AE000AC430C6083F31088016E012903D1118867
:103AF000FFF718FD70BDFFF773FE70BD80B5806ADB
:103B0000016E012905D15821415A4908FFF70AFDE4
:103B100080BDFFF766FE80BDF0B581B00446016848
:103B200008686D4A0240A06823690343606918432E
:103B30001043E26910430860032630034B68834357
:103B4000E06818434860A569644B994202D0206A36
:103B5000284300E028460B252D028F68AF4307431A
:103B60008F605F48814208D099420AD05D48814207
:103B700038D15D48C06C5EA507E05B48C06C80082A
:103B800002E05948C06C800A584D8007000F2F583A
:103B90000125E80399422AD0824211D1082F00D989
:103BA00094E0C0467F443F797F00BF44043D478F87
:103BB0004D8F8F8F7600FFF785F9002848D06CE095
:103BC000082F00D982E0C0467F443F797F00BF4480
:103BD0000430417D477D7D7D7200FFF773F9002839
:103BE00069D141E010270125E8039942D4D1082F7B
:103BF0006CD8C0467F443F797F00BF4404670967A3
:103C00000F6767673800FFF75DF900282FD109E0DB
:103C100035480068C00629D53A4828E0FFF76CF916
:103C2000002824D1002551E0FFF756F9002834D1AF
:103C30000EE0FFF751F900283DD115E02A48006851
:103C4000C00629D52F4828E0FFF756F9002824D1CF
:103C500000253BE024480068C0062BD529482AE00F
:103C6000FFF74AF9002826D100252FE02448626892
:103C70005643B0422AD31103884227D8010E560872
:103C80000002002380195941FCF7A2FA1F4941188C
:103C90001F4A91421AD216E01948400061684A084A
:103CA000101800F041FA184901400FD00007400FEA
:103CB000084308E0124861684A08101800F034FA16
:103CC00080B2102802D32168C860002500206066F9
:103CD000A066284601B0F0BDF369FFEF0048004040
:103CE000004400400038014000100240E048000855
:103CF00001000000040000000200000008000000B5
:103D00000024F40000093D00F0FF000000FDFFFF6B
:103D100000FD0F00F0B587B016460F460546046853
:103D2000E1693940C91B4A424A410020B24224D1CC
:103D3000069304952A4674320C9D002D1FD0691CF1
:103D400043D1E1693940C91B4A424A41B24214D1C8
:103D5000E1693940C91B4A424A41B2420DD1E16989
:103D60003940C91B4A424A41B24206D1E169394051
:103D7000C91B4A424A41B242E3D007B0F0BD0392A8
:103D8000FEF726FE049CEFF31081012080F31088DB
:103D90000D22520123681D6895431D6081F3108830
:103DA000EFF3108180F31088226893688343936057
:103DB00081F310882020A0677C34039900200870CC
:103DC00020202060032007B0F0BD03920290012064
:103DD0000190C0020590049C06E0C0693840C01BF9
:103DE00041424141B1422DD1FEF7F2FD0699401A00
:103DF000A842C8D8206801684907EED5C169059A6C
:103E00001142EAD005990162EFF31080019D85F31C
:103E100010880D214901226813688B43136080F3D9
:103E20001088EFF3108085F3108821688A68AA4310
:103E30008A6080F310882020A067E06703990C4611
:103E40000C34BBE7029807B0F0BD0000B2B0FEF73B
:103E5000CDFD19AC201D2421FCF75CFB0026139638
:103E60001296119610960F960E960D960C960325A7
:103E7000E8029E490A68824301201C90C302D218BE
:103E80000A602596099624960221239110221D92FC
:103E90001991800526902046FFF768F8002803D086
:103EA000EFF3108072B6FEE70998189017901690FD
:103EB00015950F20149014A801242146FEF7EEFE5C
:103EC000002803D0EFF3108072B6FEE709980F9038
:103ED0000E900B950BA8FEF7F3FD002803D0EFF32F
:103EE000108072B6FEE782480168802211430160AB
:103EF0000168114019911999016821430160016815
:103F0000214019911999416821434160406820403E
:103F1000199019980A242046099E31463246FEF728
:103F2000B3FD2046FEF7A4FD72480C244B21CD01C1
:103F3000714962C0066046608460C6600661466181
:103F400086610C38FFF7F0FA002803D0EFF31080F9
:103F500072B6FEE769486A4922C00999016041606A
:103F60008160C460016141618161C1610838FFF70E
:103F7000DBFA002803D0EFF3108072B6FEE7AF2023
:103F800082005C485F4C2146FFF79EFB0998C043C6
:103F90000A905D4E5D4F5F4D62E078680999295443
:103FA0003846143000903A460C323B4610332846CF
:103FB0005949FCF715FAFE683046FCF7D7FB574C19
:103FC000214600F0D3F80890B86144432046FCF73E
:103FD00017FC0146304600F09FFB0646FCF7C6FB87
:103FE0006424214600F0C2F80790F861444320465B
:103FF000FCF706FC0146304600F048FBFCF7B6FB38
:10400000044638623869FCF787FB06900E467869EB
:10401000FCF782FB069A02920396049005910094A5
:104020000898C21C19AC20463D49079BFCF758F97B
:104030002046FCF72FFA82B2304E304621460A9CC9
:104040002346FFF7CFFB0322304636492346FFF7CE
:10405000C9FB0120FEF7E4FB09983870294C2A4E71
:104060003046FCF717FA82B2244831460A9BFFF724
:10407000B9FB38780128F3D1099878603046214699
:10408000FCF7E2F92249FCF7CBF9B860017847293F
:10409000E6D147217A68A954511C7960415C0170CE
:1040A000B86801780A2900D177E77A68A954511CC9
:1040B0007960415C0170B86801780A2900D16CE729
:1040C0007A68A954511C7960415C0170B868017824
:1040D0000A2900D161E77A68A954511C7960415CD2
:1040E0000170B86801780A29D4D156E70070004001
:1040F0002C1002401C07002000380140A0070020BF
:1041000000440040F8000020E6030020700000207A
:10411000F448000894000020FA4800081027000026
:104120000B490008F048000843088B421AD30022CC
:1041300003098B4279D3030A8B425ED3030B8B4274
:1041400042D3030C8B4227D30902FF2212BA030C7D
:104150008B4202D31212090203D0030B8B4233D3DA
:104160001AE0D3E0411A8041401C704703460B43DC
:1041700071D443088B42F5D3002203098B4254D3F8
:10418000030A8B4239D3030B8B421DD3030C8B42A2
:1041900002D394466EE0090AC30B8B4201D3CB03D2
:1041A000C01A5241830B8B4201D38B03C01A524178
:1041B000430B8B4201D34B03C01A5241030B8B427A
:1041C00001D30B03C01A5241C30A8B4201D3CB0265
:1041D000C01A5241830A8B4201D38B02C01A52414A
:1041E000430A8B4201D34B02C01A5241030A8B424D
:1041F00001D30B02C01A5241CDD2C3098B4201D365
:10420000CB01C01A524183098B4201D38B01C01AE2
:10421000524143098B4201D34B01C01A5241030959
:104220008B4201D30B01C01A5241C3088B4201D308
:10423000CB00C01A524183088B4201D38B00C01AB5
:10424000524143088B4201D34B00C01A5241411ADC
:10425000524110007047CA0F00D04942031000D3EA
:104260004042534000229C4603098B422DD3030A4F
:104270008B4212D38901FC2212BA030A8B420CD35F
:10428000890192118B4208D3890192118B4204D388
:10429000890137D0921100E08909C3098B4201D30B
:1042A000CB01C01A524183098B4201D38B01C01A42
:1042B000524143098B4201D34B01C01A52410309B9
:1042C0008B4201D30B01C01A5241C3088B4201D368
:1042D000CB00C01A524183088B4201D38B00C01A15
:1042E0005241D9D243088B4201D34B00C01A5241EC
:1042F000411A00D201465241104663465B1000D37A
:104300004042704763465B1000D3404201B5002134
:10431000004201D0C9430846C046C04602BDF8B5B8
:10432000040C8BB2264682B25E43104658430D0CF5
:10433000370C360400218019164679416E43370C3C
:1043400036048019264679416E438919F8BD00006C
:104350004900CA020243100000D004204A0D01D0D7
:1043600001221043044A490D914201D10221084320
:10437000012800D105207047FF07000010B5072174
:10438000024A00200907FEF7B9F810BD010300003A
:10439000034A10B500201107FEF7B0F810BD000069
:1043A00001FDFFFF10B504460868496800F002F8F7
:1043B000206010BDF8B504460D466A4600F070F85E
:1043C00000987E30009000281CDC00221346204616
:1043D000294600F0F5F815D0264E00213046002081
:1043E000C046074620462946FDF7EAFF0446374007
:1043F000394630460020C04660002FD10220FDF72C
:1044000040FD2BE00098FF282EDB0021084600200D
:10441000C04603218905084006460022134620466F
:10442000294600F0FFF801D8012500E00025022010
:10443000FDF727FDFF24E405002E09D0002D02D052
:104440000120800501E00120C005B04200D00A4CE7
:10445000042108460020C046002D01D02046F8BDAA
:104460000120C0076040F8BD20462946FDF7A8FF9F
:10447000F8BD000008080000FFFF7F7F10B504466C
:104480000A460068616800F037F86160206010BD7E
:1044900030380A2801D20120704700207047000000
:1044A00070B51446002222604B000F4A5B0893420D
:1044B00019DA02461A4316D001221205934201DB93
:1044C000226807E03622FEF719F84B005B08352218
:1044D000D2432260054D1B0D5B19D2182260044A9D
:1044E0001140044A891870BD0000F07F02FCFFFFF4
:1044F000FFFF0F800000E03F70B50546080DC04388
:1045000016460C4640052CD000221346284600F0E3
:1045100057F826D0324628462146FDF7EFFF0546DC
:10452000080DC0430C46400510D000221346284613
:1045300000F046F815D10220FDF7A3FCFFF728FF95
:1045400049004908E20FD207114370BD0220FDF770
:1045500098FCFFF713FF49004908E20FD207114307
:1045600070BD2846214670BD10B500290AD00878D4
:10457000002807D005487844FDF7CAFE002801D07E
:10458000002010BD0248784410BD0000E603000082
:10459000DE03000010B500290AD00878002807D0F3
:1045A00005487844FDF7B4FE002801D0002010BD76
:1045B0000248784410BD0000D6030000CE0300007E
:1045C00070B501252D050C001C4310D4EC4206D417
:1045D000AC420AD4994200D070BD904270BDE9420D
:1045E00017D4EB4215D4994270BD894270BDEC429C
:1045F00006D5AC42F9D58B4200D070BD824270BD69
:104600006D004C00EC4204D25C00EC4201D28B42C3
:1046100070BD034C30B4FDF721FF30BC70BD00BF4E
:104620001900120470B501252D051C000C4310D48F
:10463000EC4206D4AC420AD48B4200D070BD824218
:1046400070BDEB4217D4E94215D48B4270BD9B423A
:1046500070BDEC4206D5AC42F9D5994200D070BD90
:10466000904270BD6D005C00EC4204D24C00EC4204
:1046700001D2994270BD0FB40CBC03BC024C30B4E3
:10468000FDF7ECFE30BC70BD1900160470B50125B5
:10469000ED0704004C4020D4441A01D2001B091934
:1046A000C60D4B00F2B2FF2A29D01B0E2CD00002FF
:1046B0000C0228432C43D31ADC40051910D2280AD7
:1046C00002D3401C6D0611D0761EF6058019FF2A14
:1046D00000DA70BDC00DC00570BD694000F022F861
:1046E00001200543C541521C761CE8E764089C4044
:1046F000C90161408900E7D10124A043E4E71B0E12
:10470000440200D0034870BD002AFCD1C00FC0078E
:1047100070BD00BF0000C07F70B50125ED0704002B
:104720004C4022D4441A02D26C40001B0919C60D19
:104730004B00F2B2FF2A4BD01B0E50D000020C02ED
:10474000A8432C43D31ADC40051B05D5AD0019D373
:104750006D08761E521E37D0F605280A01D2801940
:1047600070BD70416D0603D070BD6940FFF794FFC6
:104770009C4009026140490001D0401E70BD0124E7
:10478000A04370BD6D081DD001202B0C01D12D045C
:1047900010302B0E01D12D0208302B0F01D12D012D
:1047A000001DAB0F01D1AD00801CEB0F01D16D00DE
:1047B000401C361A121A6D00680AF5054019012AC4
:1047C00002DB70BD002070BDC036300AC00770BD6E
:1047D0001B0E440201D1FF2B00D1024870BD002AFC
:1047E000F0D070BD0000C07F03B402487844844616
:1047F00003BC604775C2FFFF03B402487844844697
:1048000003BC604773C7FFFF03B402487844844683
:1048100003BC604781D6FFFF03B402487844844656
:1048200003BC6047A5D9FFFF02400000000000A0C4
:104830000000000005400000000000C8000000006B
:104840000C4000000000409C0000000019400000E7
:104850000020BCBE0000000034400000BFC91B8E19
:1048600000000004B5400000504BCFD06607E2CFF7
:10487000010000006C4100003E8251AADFEEA73427
:1048800001000000D9420000DCB5A0E23A301F97D9
:10489000FFFFFFFFB4450000FD25A0C8E9A3C14FFD
:1048A000FFFFFFFFFF3F000000000080000000004E
:1048B000FF3F00000000008000000000000000003A
:1048C00000000000010203040607080900000000C0
:1048D00001020304030406080C1018203000000035
:1048E00000000000040000000200000008000000BA
:1048F0000D0A0A004750524D43004750524D432C79
:1049000025462C4E2C25462C2546000D0A54696D53
:10491000653D25643A25643A2564204C61743D2543
:10492000662C204C6F6E673D25660000884A0008A3
:10493000000000201000000004010008984A000850
:1049400010000020180E00002001000800000000E8
:104950000000F07FFFFFFFFFFFFFEF7F1C00000064
:1049600043000000F8FFFFFF0C0000000E000000F5
:104970000F0000002E0000001001000043000000A6
:10498000F8FFFFFF00404040404040404040414170
:104990004141414040404040404040404040404014
:1049A00040404040400502020202020202020202AE
:1049B00002020202022020202020202020202002AB
:1049C000020202020202909090909090101010103B
:1049D00010101010101010101010101010101010D7
:1049E000020202020202888888888888080808086B
:1049F0000808080808080808080808080808080837
:104A0000020202024000000000000000000000005E
:104A10000000000000000000000000000000000096
:104A20000000000000000000000000000000000086
:104A30000000000000000000000000000000000076
:104A40000000000000000000000000000000000066
:104A50000000000000000000000000000000000056
:104A60000000000000000000000000000000000046
:104A70000000000000000000000000000000000036
:104A80000000000000000000010000000400000021
:084A90000000200000000000FE
:04000005080000C12E
:00000001FF
